{
  "contractName": "Owners",
  "abi": [
    {
      "anonymous": false,
      "inputs": [
        {
          "indexed": false,
          "internalType": "uint256",
          "name": "mascotaId",
          "type": "uint256"
        },
        {
          "indexed": false,
          "internalType": "string",
          "name": "seller",
          "type": "string"
        },
        {
          "indexed": false,
          "internalType": "string",
          "name": "tipoMascota",
          "type": "string"
        },
        {
          "indexed": false,
          "internalType": "string",
          "name": "razaMascota",
          "type": "string"
        },
        {
          "indexed": false,
          "internalType": "uint256",
          "name": "precio",
          "type": "uint256"
        },
        {
          "indexed": false,
          "internalType": "bool",
          "name": "isAvailable",
          "type": "bool"
        },
        {
          "indexed": false,
          "internalType": "address payable",
          "name": "owner",
          "type": "address"
        }
      ],
      "name": "MascotaBuy",
      "type": "event"
    },
    {
      "anonymous": false,
      "inputs": [
        {
          "indexed": false,
          "internalType": "uint256",
          "name": "mascotaId",
          "type": "uint256"
        },
        {
          "indexed": false,
          "internalType": "string",
          "name": "seller",
          "type": "string"
        },
        {
          "indexed": false,
          "internalType": "string",
          "name": "tipoMascota",
          "type": "string"
        },
        {
          "indexed": false,
          "internalType": "string",
          "name": "razaMascota",
          "type": "string"
        },
        {
          "indexed": false,
          "internalType": "uint256",
          "name": "precio",
          "type": "uint256"
        },
        {
          "indexed": false,
          "internalType": "bool",
          "name": "isAvailable",
          "type": "bool"
        },
        {
          "indexed": false,
          "internalType": "address payable",
          "name": "owner",
          "type": "address"
        }
      ],
      "name": "MascotaEvent",
      "type": "event"
    },
    {
      "inputs": [
        {
          "internalType": "uint256",
          "name": "",
          "type": "uint256"
        }
      ],
      "name": "mascotas",
      "outputs": [
        {
          "internalType": "uint256",
          "name": "mascotaId",
          "type": "uint256"
        },
        {
          "internalType": "string",
          "name": "seller",
          "type": "string"
        },
        {
          "internalType": "string",
          "name": "tipoMascota",
          "type": "string"
        },
        {
          "internalType": "string",
          "name": "razaMascota",
          "type": "string"
        },
        {
          "internalType": "uint256",
          "name": "precio",
          "type": "uint256"
        },
        {
          "internalType": "bool",
          "name": "isAvailable",
          "type": "bool"
        },
        {
          "internalType": "address payable",
          "name": "owner",
          "type": "address"
        }
      ],
      "stateMutability": "view",
      "type": "function",
      "constant": true
    },
    {
      "inputs": [],
      "name": "total",
      "outputs": [
        {
          "internalType": "uint256",
          "name": "",
          "type": "uint256"
        }
      ],
      "stateMutability": "view",
      "type": "function",
      "constant": true
    },
    {
      "inputs": [
        {
          "internalType": "string",
          "name": "_seller",
          "type": "string"
        },
        {
          "internalType": "string",
          "name": "_tipoMascota",
          "type": "string"
        },
        {
          "internalType": "string",
          "name": "_razaMascota",
          "type": "string"
        },
        {
          "internalType": "uint256",
          "name": "_precio",
          "type": "uint256"
        }
      ],
      "name": "addMascota",
      "outputs": [],
      "stateMutability": "nonpayable",
      "type": "function"
    },
    {
      "inputs": [
        {
          "internalType": "uint256",
          "name": "_mascotaId",
          "type": "uint256"
        }
      ],
      "name": "buyMascota",
      "outputs": [],
      "stateMutability": "nonpayable",
      "type": "function"
    }
  ],
  "bytecode": "0x6080604052600060015534801561001557600080fd5b50610d73806100256000396000f3fe608060405234801561001057600080fd5b506004361061004c5760003560e01c806307581b49146100515780632ddbd13a1461006d578063bfc7c1191461008b578063c2b49528146100c1575b600080fd5b61006b600480360381019061006691906108df565b6100dd565b005b610075610278565b6040516100829190610a2d565b60405180910390f35b6100a560048036038101906100a0919061099a565b61027e565b6040516100b89796959493929190610a48565b60405180910390f35b6100db60048036038101906100d6919061099a565b610485565b005b600160008154809291906100f090610c2b565b91905055506040518060e0016040528060015481526020018581526020018481526020018381526020018281526020016001151581526020013373ffffffffffffffffffffffffffffffffffffffff16815250600080600154815260200190815260200160002060008201518160000155602082015181600101908051906020019061017d9291906107b7565b50604082015181600201908051906020019061019a9291906107b7565b5060608201518160030190805190602001906101b79291906107b7565b506080820151816004015560a08201518160050160006101000a81548160ff02191690831515021790555060c08201518160050160016101000a81548173ffffffffffffffffffffffffffffffffffffffff021916908373ffffffffffffffffffffffffffffffffffffffff1602179055509050507f9e19c4c10c865219336839becee4248a66632caa738f53333a424c34a6db0fdd6001548585858560013360405161026a9796959493929190610a48565b60405180910390a150505050565b60015481565b60006020528060005260406000206000915090508060000154908060010180546102a790610bc8565b80601f01602080910402602001604051908101604052809291908181526020018280546102d390610bc8565b80156103205780601f106102f557610100808354040283529160200191610320565b820191906000526020600020905b81548152906001019060200180831161030357829003601f168201915b50505050509080600201805461033590610bc8565b80601f016020809104026020016040519081016040528092919081815260200182805461036190610bc8565b80156103ae5780601f10610383576101008083540402835291602001916103ae565b820191906000526020600020905b81548152906001019060200180831161039157829003601f168201915b5050505050908060030180546103c390610bc8565b80601f01602080910402602001604051908101604052809291908181526020018280546103ef90610bc8565b801561043c5780601f106104115761010080835404028352916020019161043c565b820191906000526020600020905b81548152906001019060200180831161041f57829003601f168201915b5050505050908060040154908060050160009054906101000a900460ff16908060050160019054906101000a900473ffffffffffffffffffffffffffffffffffffffff16905087565b60008110158015610497575060015481105b6104a057600080fd5b60008060008381526020019081526020016000206040518060e0016040529081600082015481526020016001820180546104d990610bc8565b80601f016020809104026020016040519081016040528092919081815260200182805461050590610bc8565b80156105525780601f1061052757610100808354040283529160200191610552565b820191906000526020600020905b81548152906001019060200180831161053557829003601f168201915b5050505050815260200160028201805461056b90610bc8565b80601f016020809104026020016040519081016040528092919081815260200182805461059790610bc8565b80156105e45780601f106105b9576101008083540402835291602001916105e4565b820191906000526020600020905b8154815290600101906020018083116105c757829003601f168201915b505050505081526020016003820180546105fd90610bc8565b80601f016020809104026020016040519081016040528092919081815260200182805461062990610bc8565b80156106765780601f1061064b57610100808354040283529160200191610676565b820191906000526020600020905b81548152906001019060200180831161065957829003601f168201915b50505050508152602001600482015481526020016005820160009054906101000a900460ff161515151581526020016005820160019054906101000a900473ffffffffffffffffffffffffffffffffffffffff1673ffffffffffffffffffffffffffffffffffffffff1673ffffffffffffffffffffffffffffffffffffffff168152505090506001151560008084815260200190815260200160002060050160009054906101000a900460ff1615151461072f57600080fd5b600080600084815260200190815260200160002060050160006101000a81548160ff0219169083151502179055507ff85e15a8ce7e229e4f7ff430eedfdfc141417df06b3c8655306cb3c047fcf45d60015482602001518360400151846060015185608001516000336040516107ab9796959493929190610a48565b60405180910390a15050565b8280546107c390610bc8565b90600052602060002090601f0160209004810192826107e5576000855561082c565b82601f106107fe57805160ff191683800117855561082c565b8280016001018555821561082c579182015b8281111561082b578251825591602001919060010190610810565b5b509050610839919061083d565b5090565b5b8082111561085657600081600090555060010161083e565b5090565b600061086d61086884610af1565b610acc565b90508281526020810184848401111561088957610888610d06565b5b610894848285610b86565b509392505050565b600082601f8301126108b1576108b0610d01565b5b81356108c184826020860161085a565b91505092915050565b6000813590506108d981610d26565b92915050565b600080600080608085870312156108f9576108f8610d10565b5b600085013567ffffffffffffffff81111561091757610916610d0b565b5b6109238782880161089c565b945050602085013567ffffffffffffffff81111561094457610943610d0b565b5b6109508782880161089c565b935050604085013567ffffffffffffffff81111561097157610970610d0b565b5b61097d8782880161089c565b925050606061098e878288016108ca565b91505092959194509250565b6000602082840312156109b0576109af610d10565b5b60006109be848285016108ca565b91505092915050565b6109d081610b3e565b82525050565b6109df81610b50565b82525050565b60006109f082610b22565b6109fa8185610b2d565b9350610a0a818560208601610b95565b610a1381610d15565b840191505092915050565b610a2781610b7c565b82525050565b6000602082019050610a426000830184610a1e565b92915050565b600060e082019050610a5d600083018a610a1e565b8181036020830152610a6f81896109e5565b90508181036040830152610a8381886109e5565b90508181036060830152610a9781876109e5565b9050610aa66080830186610a1e565b610ab360a08301856109d6565b610ac060c08301846109c7565b98975050505050505050565b6000610ad6610ae7565b9050610ae28282610bfa565b919050565b6000604051905090565b600067ffffffffffffffff821115610b0c57610b0b610cd2565b5b610b1582610d15565b9050602081019050919050565b600081519050919050565b600082825260208201905092915050565b6000610b4982610b5c565b9050919050565b60008115159050919050565b600073ffffffffffffffffffffffffffffffffffffffff82169050919050565b6000819050919050565b82818337600083830152505050565b60005b83811015610bb3578082015181840152602081019050610b98565b83811115610bc2576000848401525b50505050565b60006002820490506001821680610be057607f821691505b60208210811415610bf457610bf3610ca3565b5b50919050565b610c0382610d15565b810181811067ffffffffffffffff82111715610c2257610c21610cd2565b5b80604052505050565b6000610c3682610b7c565b91507fffffffffffffffffffffffffffffffffffffffffffffffffffffffffffffffff821415610c6957610c68610c74565b5b600182019050919050565b7f4e487b7100000000000000000000000000000000000000000000000000000000600052601160045260246000fd5b7f4e487b7100000000000000000000000000000000000000000000000000000000600052602260045260246000fd5b7f4e487b7100000000000000000000000000000000000000000000000000000000600052604160045260246000fd5b600080fd5b600080fd5b600080fd5b600080fd5b6000601f19601f8301169050919050565b610d2f81610b7c565b8114610d3a57600080fd5b5056fea264697066735822122074307e38bbbe258227567cbb89df6460f5c98c58fd1b0781db57a82c16bd3d2164736f6c63430008060033",
  "immutableReferences": {},
  "source": "// SPDX-License-Identifier: MIT\r\npragma solidity ^0.8.6;\r\n\r\ncontract Owners {\r\n\r\n    struct Mascota {\r\n        uint256 mascotaId; //Identificador\r\n        string seller;\r\n        string tipoMascota;\r\n        string razaMascota;\r\n        uint256 precio;\r\n        bool isAvailable;\r\n        address payable owner;\r\n    }\r\n\r\n    event MascotaBuy (\r\n        uint256 mascotaId,\r\n        string seller, \r\n        string tipoMascota,\r\n        string razaMascota,\r\n        uint256 precio,\r\n        bool isAvailable,\r\n        address payable owner\r\n    );\r\n\r\n    event MascotaEvent (\r\n        uint256 mascotaId,\r\n        string seller, \r\n        string tipoMascota,\r\n        string razaMascota,\r\n        uint256 precio,\r\n        bool isAvailable,\r\n        address payable owner\r\n    );\r\n\r\n    \r\n\r\n    mapping(uint256 => Mascota) public mascotas;\r\n    uint256 public total=0;\r\n\r\n    // funcion aadir nuevo mascota\r\n    function addMascota(string memory _seller, string memory _tipoMascota, string memory _razaMascota, uint256 _precio) public {\r\n        total++;\r\n        mascotas[total]= Mascota(total, _seller, _tipoMascota, _razaMascota, _precio, true, payable(msg.sender));\r\n        emit MascotaEvent(total, _seller, _tipoMascota, _razaMascota, _precio, true, payable(msg.sender));\r\n    }\r\n\r\n    // funcion comprar mascota\r\n    function buyMascota(uint256 _mascotaId) public {\r\n        require(_mascotaId >= 0 && _mascotaId < total);\r\n        Mascota memory _mascota = mascotas[_mascotaId];\r\n\r\n        require(mascotas[_mascotaId].isAvailable == true);\r\n\r\n        mascotas[_mascotaId].isAvailable = false;\r\n        \r\n        emit MascotaBuy(total, _mascota.seller, _mascota.tipoMascota, _mascota.razaMascota, _mascota.precio, false, payable(msg.sender));\r\n    }\r\n\r\n\r\n}",
  "sourcePath": "C:\\Users\\juanj\\Desktop\\TFG\\blockchain-mascotas\\contracts\\Owners.sol",
  "compiler": {
    "name": "solc",
    "version": "0.8.6+commit.11564f7e.Emscripten.clang"
  },
  "schemaVersion": "3.4.13",
  "updatedAt": "2023-06-26T16:43:29.688Z",
  "networkType": "ethereum",
  "devdoc": {
    "kind": "dev",
    "methods": {},
    "version": 1
  },
  "userdoc": {
    "kind": "user",
    "methods": {},
    "version": 1
  }
}